:02000000D02806
:10000800FF00030E8301A9000A08AA008A017008EC
:10001800A0000B1D4028A50A0319A60A8030F0008D
:10002800803026067002031D1B2825080F3C031884
:100038003F28A10A0319A20A8030F0008030220666
:100048007002031D29282108093C03183D28A10135
:10005800A201A30A0319A40A8030F0008030240604
:100068007002031D39282308093C03183D28A30101
:10007800A401A501A6010B112008F0002A088A0096
:0A008800290E8300FF0E7F0E090011
:0E0092008312031328088A0027088200080042
:1000A00071283F30831203138600C3280630860070
:1000B000C3285B308600C3284F308600C3286630D3
:1000C0008600C3286D308600C3287D308600C32893
:1000D00007308600C3287F308600C3286F30860033
:1000E000C3288312031300302C06031D7928003027
:1000F0002B060319512800302C06031D81280130DE
:100100002B060319562800302C06031D89280230BF
:100110002B060319592800302C06031D91280330A3
:100120002B0603195C2800302C06031D9928043087
:100130002B0603195F2800302C06031DA12805306B
:100140002B060319622800302C06031DA92806304F
:100150002B060319652800302C06031DB128073033
:100160002B060319682800302C06031DB928083017
:100170002B0603196B2800302C06031DC1280930FB
:080180002B0603196E2808008C
:1001880049208A110A128000840AA70A0319A80ABA
:08019800F003031DC428080058
:1001A0000730831603139F0083121F10FF3088004F
:1001B00088011930831685008601831286018730F5
:1001C00083168100A0308B0001308312A100003023
:1001D000A2000130A3000030A400A501A60121085F
:1001E000AB002208AC005020851485102308AB001A
:1001F0002408AC00502005150511A50A0319A60A0C
:04020000EF280129B9
:02400E004A2F37
:00000001FF
