:1000000016EF00F00000000000EF00F0000000001C
:0A0010000000000000000000F3D71C
:10001C000900F5CFE6FF0006FBE10106F9E112004D
:10002C00926A936A946A956A966AFF0E806EFF0EC6
:10003C00816EFF0E826EFF0E836EFF0E846E1A0EA3
:10004C000B6E5E0E0C6E6E0E0D6E0D2EFED70C2E04
:10005C00FCD70B2EFAD70000FF0E806EFF0E816EC0
:10006C00FF0E826EFF0E836EFF0E846E1A0E0B6EE9
:10007C005E0E0C6E6E0E0D6E0D2EFED70C2EFCD77A
:10008C000B2EFAD70000806A816A826A836A846ABE
:04009C00D6D7FFD7DD
:00000001FF
