:1000000015EF06F00000000000EF00F00000000017
:0A0010000000000000000000F3D71C
:0C001C00240E0D6E0D2EFED70000120009
:06002800829082861200A6
:06002E008288829A120094
:0600340083968384120094
:06003A008298828A120088
:0600400083908382120090
:100046000450085E0550D8A0053C095E0650D8A0AD
:10005600063C0A5E0750D8A0073C0B5E0336070E27
:100066000C6E0334083609360A360B36045003A0E4
:100076000ED0085E0550D8A0053C095E0650D8A0F3
:10008600063C0A5E0750D8A0073C0B5E0DD008263A
:100096000550D8B0053C09260650D8B0063C0A26BD
:1000A6000750D8B0073C0B2603360C2EDAD702349D
:1000B600083609360A360B36045003A00ED0085E01
:1000C6000550D8A0053C095E0650D8A0063C0A5E3D
:1000D6000750D8A0073C0B5E0DD008260550D8B0B7
:1000E600053C09260650D8B0063C0A260750D8B06B
:1000F600073C0B260236070E0C6E0234083609360C
:100106000A360B36045002A00ED0085E0550D8A061
:10011600053C095E0650D8A0063C0A5E0750D8A0EA
:10012600073C0B5E0DD008260550D8B0053C0926C5
:100136000650D8B0063C0A260750D8B0073C0B2616
:1001460002360C2EDAD70134083609360A360B3653
:10015600045002A00ED0085E0550D8A0053C095EEA
:100166000650D8A0063C0A5E0750D8A0073C0B5E96
:100176000DD008260550D8B0053C09260650D8B043
:10018600063C0A260750D8B0073C0B260136070E58
:100196000C6E0134083609360A360B36045001A0B7
:1001A6000ED0085E0550D8A0053C095E0650D8A0C2
:1001B600063C0A5E0750D8A0073C0B5E0DD0082609
:1001C6000550D8B0053C09260650D8B0063C0A268C
:1001D6000750D8B0073C0B2601360C2EDAD7003470
:1001E600083609360A360B36045001A00ED0085ED2
:1001F6000550D8A0053C095E0650D8A0063C0A5E0C
:100206000750D8A0073C0B5E0DD008260550D8B085
:10021600053C09260650D8B0063C0A260750D8B039
:10022600073C0B260036070E0C6E003408360936DE
:100236000A360B36045000A00ED0085E0550D8A032
:10024600053C095E0650D8A0063C0A5E0750D8A0B9
:10025600073C0B5E0DD008260550D8B0053C092694
:100266000650D8B0063C0A260750D8B0073C0B26E5
:1002760000360C2EDAD700B00ED0045008260550F2
:10028600D8B0053C09260650D8B0063C0A260750C9
:08029600D8B0073C0B26120052
:06029E008280829612002E
:1002A4000B1E0A1E091E081E082AD8B4092AD8B42F
:0802B4000A2AD8B40B2A12003B
:0602BC008386839412000A
:0602C2008380839212000C
:1002C8000B6A0A6A096A00500402F4CF09F0F3CFF6
:1002D80008F001500502F4CF0BF0F3CF0AF00050FC
:1002E8000502F3500926F4500A22E86A0B2201504D
:1002F8000402F3500926F4500A22E86A0B2208C0C7
:1003080000F009C001F00AC002F00BC003F01200AF
:10031800C26AC00EC212C18CC18E3AC000F000364B
:10032800009000360090003600900050C212C28043
:1003380071DEC284C2A401D0FDD7C4CF01F0006A27
:0C034800C3500012000E0112C2901200FF
:06035400B6DF6BDE1200B3
:10035A00CB50010F006E016A000E012239C004F071
:10036A00000E056EACDF060E026E00C004F001C07E
:10037A0005F0025005E005320432059EFF0FFAD758
:10038A00040E016E04C000F0015004E00036009033
:10039A00FF0FFBD7300E0014036E04C000F005C037
:1003AA0001F001320032019E01320032019E00C08A
:0C03BA00BBFF0F0EBA160350BA1212005F
:1003C60081800D0E0C6EFB0E0D6E0D2EFED70C2EC3
:1003D600FCD7000000008190750E0C6EE10E0D6ECC
:0A03E6000D2EFED70C2EFCD71200DE
:0603F0001BDE20DE1200FE
:1003F600CB50010F006E016A000E012239C004F0D5
:10040600000E056E5EDF060E026E00C004F001C02F
:1004160005F0025005E005320432059EFF0FFAD7BB
:10042600040E016E04C000F0015004E00036009096
:10043600FF0FFBD7300E0014036E04C000F005C09A
:1004460001F001320032019E01320032019E00C0ED
:0C045600BEFF0F0EBD160350BD121200B9
:100462000450000A12E10550000A0FE10650000A8A
:100472000CE10750000A09E1FF0E006EFF0E016E4B
:10048200FF0E026E7F0E036E12000C6A07BE0C2A6C
:100492000D6A0B6A0A6A096A086A0350021001109F
:1004A2000010D8B484D0035007180E6E0EBE0D1E75
:1004B20007AE0BD0041E051E061E071E042AD8B462
:1004C200052AD8B4062AD8B4072A03AE0BD0001ED8
:1004D200011E021E031E002AD8B4012AD8B4022A21
:1004E200D8B4032A035007100E6E0EBE1CD0AADD2C
:1004F2000CBE36D00DAE5BD0001E011E021E031EC6
:10050200002AD8B4012AD8B4022AD8B4032A081E71
:10051200091E0A1E0B1E082AD8B4092AD8B40A2AB0
:10052200D8B40B2A44D007AE15D003BE0DD0035069
:100532000B6E02500A6E0150096E0050086E036A7B
:10054200026A016A006AD6D7036A026A016A006A0D
:10055200002A000C031E021E011E001E0C8EC7D7AD
:10056200082AD8B4092AD8B40A2AD8B40B2A0450C3
:10057200085CD8A4BFD70550095CD8A4BBD70650E5
:100582000A5CD8A4B7D707500B5CD8A4B3D70B6AC0
:100592000A6A096A086A002AD8B4012AD8B4022A67
:1005A200D8B4032A03AEA6D70E6A0E88FF0C0E6AD1
:0A05B2000CA001D076DE000F12004D
:1005BC00220E0C6E086A096A0A6A0B6A0C06D8B419
:1005CC001FD0D8900B320A32093208320332023271
:1005DC0001320032D8A0F2D70C06D8B409D004509E
:1005EC0008260550092206500A2207500B22EAD78A
:1005FC00045008260550092206500A2207500B22E7
:02060C001200DA
:10060E00200E006E4E0E016E000E026E036E120074
:10061E008180070E0C6E7D0E0D6E0D2EFED70C2EEC
:10062E00FCD781907C0E0C6E5F0E0D6E0D2EFED7DC
:06063E000C2EFCD7120097
:060644002CDE3ADE12007C
:10064A003906390639C001F039060150000803E2BB
:10065A0000000000F7D700000000000000000000C2
:02066A0012007C
:06066C003A6A54DE1200A0
:06067200E6DCE2DC1200F0
:0A0678006DDE26C039F0BBDE120073
:08068200BB6ABA98BA9A120093
:0A068A00B2DE26C039F064DE120073
:10069400EBDF00C01AF001C01BF01B50010802E19F
:1006A4001A502C0807E2E0DF00C01AF001C01BF06A
:0E06B40088DEF3D7010E006E000E016E1200FC
:0A06C200D7DF26C039F096DE1200E3
:1006CC0026C017F027C018F028C000F0010E026EEB
:1006DC00005004E002360290FF0FFBD702C021F05D
:1006EC00021C1F6E29C001F0010E006E015004E0C7
:1006FC0000360090FF0FFBD700C01EF0001E00C09C
:10070C0023F0120E2624E96E000E2720EA6E02500A
:10071C00EF120050EF161D6A2E5201E01D1E120E34
:10072C00E95E1D50000A03E02350EF1602D01E5064
:10073C00EF1267DFE80E046E030E056E000E066EF8
:10074C00076E36DF00C02FF001C030F002C031F070
:10075C0003C032F02AC000F02BC001F02CC002F014
:10076C002DC003F0003600900136023603360036F9
:10077C0000900136023603360A0E046E000E056E2A
:10078C00066E076E15DF00C033F001C034F002C0F6
:10079C0035F003C036F000C004F001C005F002C013
:1007AC0006F003C007F02FC000F030C001F031C0DC
:1007BC0002F032C003F04FDE00C037F001C038F059
:1007CC0001C004F0056A0450051003E0020E006E2F
:1007DC00120037C020F033C004F034C005F035C02F
:1007EC0006F036C007F02FC000F030C001F031C069
:1007FC0002F032C003F02FDE08C000F009C001F097
:10080C000AC002F00BC003F000C02FF001C030F0A2
:10081C0002C031F003C032F033C005F034C006F032
:10082C0035C007F036C008F0083207320632053200
:10083C00089E08BC088E800E0818046E800E0318E3
:10084C00045C08E10250075C05E10150065C02E122
:10085C000050055C01E2202A20C001F00132019E0B
:10086C0001C022F0070E015C03E2010E006E1200C3
:04087C00006A1200FC
:0A0880009492CA840C0EBA12120002
:10088A0026C0E1FF27C0E2FFE66A010E296E286A48
:10089A00169017C0E9FF18C0EAFF1D50000A13E1BD
:1008AA002150EF14016E0150000A0CE016A009D085
:1008BA0026C0E1FF27C0E2FFFF0EE66E28C000F067
:1008CA001200EED712D02150EF14016E0150000A27
:1008DA000CE116A009D026C0E1FF27C0E2FFFF0EF7
:1008EA00E66E28C000F01200EED722C039F0A8DE6A
:1008FA0020C039F0A5DE295215E02150EF14016E0F
:10090A000150000A02E02950281229362990020EC5
:10091A00205C396E95DE0000000000000000000037
:10092A000000E9D71D50000A10E12150EF14016EB2
:10093A000150000A010ED8A4000E006E26C0E1FF85
:10094A0027C0E2FF00C0E6FF0FD02150EF14016E6E
:10095A000150000A000ED8A4010E006E26C0E1FF65
:10096A0027C0E2FF00C0E6FF1D502818006E00C035
:04097A0028F012004F
:10097E00010E276E1D50261A17C0E9FF18C0EAFF98
:10098E001D50000A03E01E50EF1202D02350EF1646
:10099E0020C039F053DE261E275216E027502614AB
:1009AE00006E03E11E50EF1202D02350EF162736D1
:1009BE002790020E205C396E41DE00000000000020
:1009CE00000000000000E8D71D50000A03E023508D
:1009DE00EF1602D01E50EF1220C039F02FDE12009B
:0A09EE002ADE26C039F0B2DC120048
:0809F800BE6ABD98BD9A120011
:0A0A00009494CA840C0EBD1212007B
:100A0A0030DE00C01AF001C01BF0020E1B5C02E1CE
:100A1A00BC0E1A5C07E225DE00C01AF001C01BF00A
:0E0A2A00F9DDF3D7010E006E000E016E120012
:100A3800FF0E266E000E276ED6DFFF0E266E000E06
:060A4800276E3BDE1200E8
:100A4E008180070E0C6E7D0E0D6E0D2EFED70C2EB8
:100A5E00FCD7040E0C6E3D0E0D6E0D2EFED70C2E19
:100A6E00FCD7000000008190750E0C6EE10E0D6E2D
:100A7E000D2EFED70C2EFCD7040E0C6E3D0E0D6EF9
:0E0A8E000D2EFED70C2EFCD70000000012002B
:020A9C00120046
:0A0A9E00396AAADC396A5ADC12003A
:100AA800400EC26EFF0E926E806A040E936E816ACB
:100AB800946A826A956A836ACA80CA92F90ECB6E72
:100AC80097DFCA80CA92F90ECB6ED7DD95DFD4DEE8
:020AD80012000A
:100ADA00820E266E0F0E276E070E286E060E296EE0
:100AEA00800E2A6E250E2B6E000E2C6E2D6E2E6A2F
:080AFA00E8DD00C01CF0120051
:100B020020EC00F04FEC01F017EC00F01AEC00F0D2
:0E0B120024C039F06FDC24C039F01EDC120064
:100B20000900F5CFE6FF0006FBE10106F9E112003E
:0C0B3000B1DD81B401D0FDD768DF1200F8
:100B3C0061EC01F014EC00F01DEC00F05EEC01F047
:0E0B4C0024C039F052DC24C039F001DC120064
:100B5A00FF0E266E000E276E45DFFF0E266E000E74
:060B6A00276E85DD12007C
:100B7000FF0E266E000E276E88DD266A276A7CDD52
:020B8000120061
:100B8200266A276A33DFFF0E266E000E276E73DD9C
:020B920012004F
:100B9400266A276A78DDFF0E266E000E276E8FDD2B
:060BA400400E816E1200FC
:100BAA008182060E0B6E130E0C6EAD0E0D6E0D2E9F
:100BBA00FED70C2EFCD70B2EFAD70000000081922C
:020BCA00120017
:080BCC0024C026F0D6DE120061
:100BD400FF0E266E000E276E56DDFF0E266E000EEB
:060BE400276E6DDD12001A
:080BEA00410E266EC7DE120069
:100BF200FF0E266E000E276E47DDFF0E266E000EDC
:060C0200276E39DD12002F
:100C0800FF0E266E000E276EEEDE266A276A30DD9E
:020C18001200C8
:100C1A001C0E266E000E276E33DE00C019F012007D
:100C2A00530E156E3CDF54DFDBDF81A404D0E8DE0F
:100C3A00680E246EC6DFECDF00C015F03CD0DFDFA3
:100C4A007DD09ADF7BD08FDF79D09FDF77D080DFAE
:100C5A0075D0CADF73D0B9DF71D0E9DE6FD01ADF81
:100C6A006DD0FF0E246E000E256E46DF67D0FF0E94
:100C7A00246E000E256E5DDF61D0B40E246E000E68
:100C8A00256E3ADF5BD0B40E246E000E256E51DF5E
:100C9A0055D0FBDCB5DE47DF51D082DF4FD0BADC5E
:100CAA004DD0E3EC01F04AD0CDDE48D0F3DE46D099
:100CBA00F0DE44D043D01550410AC1E01550420A33
:100CCA00C0E01550430ABFE01550440ABEE0155073
:100CDA00450ABDE01550460ABCE01550470ABBE07C
:100CEA001550480ABAE01550530AB9E015504A0A95
:100CFA00B8E015504B0ABBE015504C0ABEE015503F
:100D0A004D0AC1E015504F0AC4E01550500AC2E01E
:100D1A001550630AC0E01550730ABFE01550740AF3
:100D2A00BEE01550750ABDE01550760ABDE01550B3
:100D3A005A0ABCE01550570ABBE0BCD776D7FFD792
:020000040030CA
:0D000100220F0EFF0181FF0FC00FE00F4026
:00000001FF
