:02000000D52801
:10000800CF00030E830195000A0896008A01400874
:100018008C000B1D4028910A0319920A8030C000F9
:10002800803012064002031D1B2811080F3C0318DC
:100038003F288D0A03198E0A8030C00080300E06D2
:100048004002031D29280D08093C03183D288D018D
:100058008E018F0A0319900A8030C0008030100684
:100068004002031D39280F08093C03183D288F0159
:100078009001910192010B110C08C00016088A002A
:0A008800150E8300CF0E4F0E090085
:0C009200831214088A0013088200080082
:10009E0078283F3083128600C828831206308600E7
:1000AE00C82883125B308600C82883124F30860022
:1000BE00C828831266308600C82883126D308600E9
:1000CE00C82883127D308600C82883120730860028
:1000DE00C82883127F308600C82883126F308600AE
:1000EE00C82800301806031D7E2800301706031995
:1000FE00502800301806031D8628013017060319F4
:10010E00542800301806031D8E28023017060319D6
:10011E00582800301806031D9628033017060319B9
:10012E005C2800301806031D9E280430170603199C
:10013E00602800301806031DA6280530170603197F
:10014E00642800301806031DAE2806301706031962
:10015E00682800301806031DB62807301706031945
:10016E006C2800301806031DBE2808301706031928
:10017E00702800301806031DC6280930170603190B
:04018E0074280800C9
:1001920049208A110A128000840A930A0319940AD8
:0801A200C003031DC928080079
:1001AA00193083168500860187308100A0308B00C4
:1001BA008D018E018F0190019101920191019201AD
:1001CA000D0897000E0898004F20851485100F0817
:1001DA009700100898004F2005150511910A031978
:0601EA00920AE328F72849
:02400E00FA3F77
:00000001FF
