:020000008A284C
:0E0006008312031321088A00200882000800DC
:100014002B283F308312031386007D280630860088
:100024007D285B3086007D284F3086007D28663031
:1000340086007D286D3086007D287D3086007D28F1
:10004400073086007D287F3086007D286F3086004B
:100054007D288312031300302506031D3328003046
:10006400240603190B2800302506031D3B28013004
:1000740024060319102800302506031D43280230E6
:1000840024060319132800302506031D4B280330CA
:1000940024060319162800302506031D53280430AE
:1000A40024060319192800302506031D5B28053092
:1000B400240603191C2800302506031D6328063076
:1000C400240603191F2800302506031D6B2807305A
:1000D40024060319222800302506031D732808303E
:1000E40024060319252800302506031D7B28093022
:0800F400240603192828080066
:1000FC0003208A110A128000840AA00A0319A10A9B
:08010C00F003031D7E2808002A
:10011400013083160313850086018312A201A30113
:10012400051C9728A20A0319A30A05189A288617FA
:100134000330FB008A30FC005530FD00FD0BA02885
:10014400FC0BA028FB0BA02800000000051CAB281A
:1001540086138030F000803023067002031DB4281B
:100164002208093C0318B828A201A3012208A4000C
:100174002308A5000A200330FB008A30FC00553018
:10018400FD00FD0BC328FC0BC328FB0BC328000098
:0601940000009228CC28B7
:02400E004A2F37
:00000001FF
