:1000000000308A0031280000243084008313000867
:10001000031917280630F800F701F70B0D28F80B25
:100020000C287B30F700F70B1328800B0A280034CC
:1000300083168613831286170230A3009630A4001D
:100040000420A30B1E288316861383128613023006
:10005000A3009630A4000420A30B29288A110A12B9
:100060004628840183131F30830583161F149F14B1
:100070001F159F1107309C008312A10183160514E0
:100080008312051846282108A20018283E2863007C
:02400E00723FFF
:00000001FF
;PIC16F877A
