:10000000B9EF5EF00000000000EF00F0000000001B
:0A0010000000000000000000F3D71C
:10001C000900F5CFE6FF0006FBE10106F9E112004D
:10BD4C000D0E0C6EFB0E0D6E0D2EFED70C2EFCD7B1
:06BD5C00000000001200CF
:10BD7200330E556EABD8670E556E720E566E0DD8D9
:0CBD8200005202E0B6D801D01AD9FFD759
:10BD9C00576AD6DF55C05CF080D8D2DF572A57508F
:10BDAC00FF0A02E1006A120068D80050561803E13D
:0ABDBC00010E006E1200EDD7120018
:10BDD400F2CF01F05DC0F6FF5EC0F7FF5FC0F8FF71
:10BDE400A68EA69CA684A688F29E550EA76EAA0EC1
:10BDF400A76EA682F28E0A0061C0E9FF62C0EAFF64
:10BE0400036A010E035C14E2026A400E025C05E25E
:10BE1400EECFF5FF0F00022AF8D7A68EA69CA684C3
:10BE2400F29E550EA76EAA0EA76EA682032AE9D724
:0ABE3400F28EA69401C0F2FF120086
:10BE5000C00E5D6EBF0E5E6E000E5F6E0001606F05
:10BE6000150E616F000E626FB5DFB90E156EEF0E25
:0CBE7000166E5E0E176EF00E186E1200BB
:10BE8600AECF01F0ABA202D0AB98AB8801C000F0F8
:02BE9600120098
:0CBEA600ACB201D0FDD75CC0ADFF1200B3
:0ABEC000000E9EBA010E006E120083
:10BECE00900EAB6E260EAC6E948E949C9EAA01D0F4
:08BEDE00FDD755C0AFFF1200B3
:10BEF400556A566A576A586A596A5950400A1BE18A
:10BF0400555056105710581001E1A0DF55C05DF090
:10BF140056C05EF057C05FF058C060F0150E0001C7
:10BF2400616F000E626F54DF596A400E5526000E91
:10BF3400562257225822790E5C6EB3DFBFDF0052BF
:10BF440001E1FCD79EDF00C05BF0780E5C6EA9DFD8
:10BF5400B5DF005201E1FCD794DF00C05AF0150EA2
:10BF6400E16E000EE26E5950E126D8B0E22A5BC0C1
:10BF7400E6FF592A150EE16E000EE26E5950E126D5
:0EBF8400D8B0E22A5AC0E6FF592AB7D71200F9
:02BFC00012006D
:020000040030CA
:0D000100021F1EFF8281FF0FC00FE00F40A5
:00000001FF
