:1000000064EF05F00000000000EF00F000000000C9
:0A0010000000000000000000F3D71C
:06001C008288829A1200A6
:06002200838083921200AE
:06002800839683841200A0
:06002E00829082861200A0
:100034000B6A0A6A096A00500402F4CF09F0F3CF8C
:1000440008F001500502F4CF0BF0F3CF0AF0005092
:100054000502F3500926F4500A22E86A0B220150E3
:100064000402F3500926F4500A22E86A0B2208C05D
:1000740000F009C001F00AC002F00BC003F0120046
:100084000B1E0A1E091E081E082AD8B4092AD8B451
:080094000A2AD8B40B2A12005D
:10009C000450085E0550D8A0053C095E0650D8A057
:1000AC00063C0A5E0750D8A0073C0B5E0336070ED1
:1000BC000C6E0334083609360A360B36045003A08E
:1000CC000ED0085E0550D8A0053C095E0650D8A09D
:1000DC00063C0A5E0750D8A0073C0B5E0DD00826E4
:1000EC000550D8B0053C09260650D8B0063C0A2667
:1000FC000750D8B0073C0B2603360C2EDAD7023447
:10010C00083609360A360B36045003A00ED0085EAA
:10011C000550D8A0053C095E0650D8A0063C0A5EE6
:10012C000750D8A0073C0B5E0DD008260550D8B060
:10013C00053C09260650D8B0063C0A260750D8B014
:10014C00073C0B260236070E0C6E023408360936B5
:10015C000A360B36045002A00ED0085E0550D8A00B
:10016C00053C095E0650D8A0063C0A5E0750D8A094
:10017C00073C0B5E0DD008260550D8B0053C09266F
:10018C000650D8B0063C0A260750D8B0073C0B26C0
:10019C0002360C2EDAD70134083609360A360B36FD
:1001AC00045002A00ED0085E0550D8A0053C095E94
:1001BC000650D8A0063C0A5E0750D8A0073C0B5E40
:1001CC000DD008260550D8B0053C09260650D8B0ED
:1001DC00063C0A260750D8B0073C0B260136070E02
:1001EC000C6E0134083609360A360B36045001A061
:1001FC000ED0085E0550D8A0053C095E0650D8A06C
:10020C00063C0A5E0750D8A0073C0B5E0DD00826B2
:10021C000550D8B0053C09260650D8B0063C0A2635
:10022C000750D8B0073C0B2601360C2EDAD7003419
:10023C00083609360A360B36045001A00ED0085E7B
:10024C000550D8A0053C095E0650D8A0063C0A5EB5
:10025C000750D8A0073C0B5E0DD008260550D8B02F
:10026C00053C09260650D8B0063C0A260750D8B0E3
:10027C00073C0B260036070E0C6E00340836093688
:10028C000A360B36045000A00ED0085E0550D8A0DC
:10029C00053C095E0650D8A0063C0A5E0750D8A063
:1002AC00073C0B5E0DD008260550D8B0053C09263E
:1002BC000650D8B0063C0A260750D8B0073C0B268F
:1002CC0000360C2EDAD700B00ED00450082605509C
:1002DC00D8B0053C09260650D8B0063C0A26075073
:0802EC00D8B0073C0B261200FC
:0602F400838683941200D2
:0602FA00828082961200D2
:06030000839083821200CD
:060306008298828A1200B9
:10030C00CB50010F006E016A000E012237C004F0C1
:10031C00000E056E89DE060E026E00C004F001C0F0
:10032C0005F0025005E005320432059EFF0FFAD7A6
:10033C00040E016E04C000F0015004E00036009081
:10034C00FF0FFBD7300E0014036E04C000F005C085
:10035C0001F001320032019E01320032019E00C0D8
:0C036C00BBFF0F0EBA160350BA121200AD
:06037800C0DFBCDF120033
:10037E00CB50010F006E016A000E012237C004F04F
:10038E00000E056E50DE060E026E00C004F001C0B7
:10039E0005F0025005E005320432059EFF0FFAD734
:1003AE00040E016E04C000F0015004E0003600900F
:1003BE00FF0FFBD7300E0014036E04C000F005C013
:1003CE0001F001320032019E01320032019E00C066
:0C03DE00BEFF0F0EBD160350BD12120032
:0603EA001BDE17DE12000D
:1003F0003706370637C001F037060150000803E220
:1004000000000000F7D7000000000000000000001E
:020410001200D8
:100412000450000A12E10550000A0FE10650000ADA
:100422000CE10750000A09E1FF0E006EFF0E016E9B
:10043200FF0E026E7F0E036E12000C6A07BE0C2ABC
:100442000D6A0B6A0A6A096A086A035002100110EF
:100452000010D8B484D0035007180E6E0EBE0D1EC5
:1004620007AE0BD0041E051E061E071E042AD8B4B2
:10047200052AD8B4062AD8B4072A03AE0BD0001E28
:10048200011E021E031E002AD8B4012AD8B4022A71
:10049200D8B4032A035007100E6E0EBE1CD0FDDD29
:1004A2000CBE36D00DAE5BD0001E011E021E031E16
:1004B200002AD8B4012AD8B4022AD8B4032A081EC2
:1004C200091E0A1E0B1E082AD8B4092AD8B40A2A01
:1004D200D8B40B2A44D007AE15D003BE0DD00350BA
:1004E2000B6E02500A6E0150096E0050086E036ACC
:1004F200026A016A006AD6D7036A026A016A006A5E
:10050200002A000C031E021E011E001E0C8EC7D7FD
:10051200082AD8B4092AD8B40A2AD8B40B2A045013
:10052200085CD8A4BFD70550095CD8A4BBD7065035
:100532000A5CD8A4B7D707500B5CD8A4B3D70B6A10
:100542000A6A096A086A002AD8B4012AD8B4022AB7
:10055200D8B4032A03AEA6D70E6A0E88FF0C0E6A21
:0A0562000CA001D08EDD000F120086
:10056C00200E006E4E0E016E000E026E036E120017
:10057C00220E0C6E086A096A0A6A0B6A0C06D8B459
:10058C001FD0D8900B320A320932083203320232B1
:10059C0001320032D8A0F2D70C06D8B409D00450DE
:1005AC0008260550092206500A2207500B22EAD7CA
:1005BC00045008260550092206500A2207500B2227
:0205CC0012001B
:0605CE0098DE9ADE120027
:0605D4002CDD28DD120001
:0805DA00BB6ABA98BA9A12003C
:0A05E20003DF24C037F0CADE120068
:0A05EC009494CA840C0EBD12120094
:0A05F6009492CA840C0EBA1212008F
:1006000024C016F025C017F026C000F0010E026EBF
:10061000005004E002360290FF0FFBD702C01CF02E
:10062000021C1E6E27C001F0010E006E015004E096
:1006300000360090FF0FFBD700C018F0001E00C06E
:100640001FF0120E2424E96E000E2520EA6E0250DF
:10065000EF120050EF16156A2C5201E0151E120E13
:10066000E95E1550000A03E01F50EF1602D0185043
:10067000EF127CDFE80E046E030E056E000E066EB0
:10068000076E7CDF00C02DF001C02EF002C02FF0FD
:1006900003C030F028C000F029C001F02AC002F0E9
:1006A0002BC003F0003600900136023603360036C8
:1006B00000900136023603360A0E046E000E056EF7
:1006C000066E076E5BDF00C031F001C032F002C081
:1006D00033F003C034F000C004F001C005F002C0E4
:1006E00006F003C007F02DC000F02EC001F02FC0AF
:1006F00002F030C003F08DDE00C035F001C036F0EE
:1007000001C004F0056A0450051003E0020E006EFB
:10071000120035C020F031C004F032C005F033C003
:1007200006F034C007F02DC000F02EC001F02FC03D
:1007300002F030C003F06DDE08C000F009C001F027
:100740000AC002F00BC003F000C02DF001C02EF073
:1007500002C02FF003C030F031C005F032C006F007
:1007600033C007F034C008F00832073206320532D1
:10077000089E08BC088E800E0818046E800E0318B0
:10078000045C08E10250075C05E10150065C02E1EF
:100790000050055C01E2202A20C001F00132019ED8
:1007A00001C01DF0070E015C03E2010E006E120095
:0407B000006A1200C9
:0A07B4000CDF24C037F0E1DD120075
:1007BE0024C0E1FF25C0E2FFE66A010E276E266A1D
:1007CE00219016C0E9FF17C0EAFF1550000A13E189
:1007DE001C50EF14016E0150000A0CE021A009D04C
:1007EE0024C0E1FF25C0E2FFFF0EE66E26C000F03A
:1007FE001200EED712D01C50EF14016E0150000AF9
:10080E000CE121A009D024C0E1FF25C0E2FFFF0EBC
:10081E00E66E26C000F01200EED71DC037F0E1DD07
:10082E0020C037F0DEDD275215E01C50EF14016EAC
:10083E000150000A02E02750261227362790020E9A
:10084E00205C376ECEDD00000000000000000000CE
:10085E000000E9D71550000A10E11C50EF14016E8C
:10086E000150000A010ED8A4000E006E24C0E1FF54
:10087E0025C0E2FF00C0E6FF0FD01C50EF14016E42
:10088E000150000A000ED8A4010E006E24C0E1FF34
:10089E0025C0E2FF00C0E6FF15502618006E00C00E
:0408AE0026F012001E
:1008B200010E256E1550241A16C0E9FF17C0EAFF73
:1008C2001550000A03E01850EF1202D01F50EF1625
:1008D20020C037F08CDD241E255216E0255024144A
:1008E200006E03E11850EF1202D01F50EF162536AA
:1008F2002590020E205C376E7ADD000000000000B9
:10090200000000000000E8D71550000A03E01F5065
:10091200EF1602D01850EF1220C037F068DD120037
:0A09220058DE24C037F0F1DC1200AB
:0A092C0025DD24C037F0ECDC1200DA
:08093600BE6ABD98BD9A1200D3
:10093E000900F5CFE6FF0006FBE10106F9E1120022
:08094E0022C024F0AFDF12000B
:10095600820E246E0F0E256E070E266E060E276E6D
:10096600800E286E250E296E000E2A6E2B6E2C6ABE
:0809760044DE00C01BF012007A
:10097E00946A826A956A836A936A816ACA80CA9205
:10098E00F90ECB6ED1DFCA80CA92F90ECB6E1EDE87
:06099E0026DE2ADE120035
:1009A400FF0E246E000E256EBADFFF0E246E000EBD
:0609B400256EFEDE1200BC
:1009BA00FF0E246E000E256EB4DFFF0E246E000EAD
:0609CA00256EF3DE1200B1
:1009D000FF0E246E000E256EA4DFFF0E246E000EA7
:0609E000256EFFDD120090
:0A09E600376ACADC376A8FDC1200A2
:1009F000FF0E246E000E256E99DFFF0E246E000E92
:060A0000256EEFDD12007F
:100A0600246A256A90DFFF0E246E000E256EE6DD51
:020A16001200CC
:100A1800246A256A82DFFF0E246E000E256EC6DE6C
:060A2800400E816E120079
:100A2E001B0E246E000E256EC3DE00C019F01200E0
:100A3E00FF0E246E000E256E6DDF246A256ACADD58
:020A4E00120094
:100A50007A0E1A6E410E1A5C13E31AC024F029DFD5
:100A6000030E0B6E8A0E0C6E550E0D6E0D2EFED7FC
:100A70000C2EFCD70B2EFAD7000000001A06EAD77E
:020A8000120062
:100A82003EDC3ADC0EEC00F014EC00F022C037F051
:0A0A920075DC22C037F039DC1200D9
:100A9C0011EC00F017EC00F030DC26DC22C037F053
:0A0AAC0068DC22C037F02CDC1200D9
:100AB600FF0E246E000E256E36DF246A256A8EDD53
:020AC60012001C
:100AC8005ADF45DFC1DFAFDF00C019F024D0EFDF08
:100AD80044D08ADF42D093DF40D076DF3ED0ABDF10
:100AE8003CD05CDF3AD094DF38D063DF36D077DF94
:100AF80034D0FF0E226E000E236EBFDF2ED0FF0E05
:100B0800226E000E236EC6DF28D07A0E196E7A0E7A
:100B1800226E19DF22D01950610AD9E01950620AF1
:100B2800D8E01950630AD7E01950640AD6E0195082
:100B3800650AD5E01950660AD4E01950670AD3E06F
:100B48001950680AD2E01950730AD1E019506A0A9C
:0E0B5800D0E019506B0AD3E0D8D7B5D7FFD73D
:020000040030CA
:0D000100220F0EFF0181FF0FC00FE00F4026
:00000001FF
