:0400000033EF00F0EA
:06000800F2AC00D0110073
:0C000E00240E0D6E0D2EFED70000120017
:10001A000900F5CFE6FF0006FBE10106F9E112004F
:10002A00C26AC00EC212C18CC18E17C000F000365F
:10003A00009000360090003600900050C212C28034
:10004A00E1DFC284C2A401D0FDD7C4CF01F0006AA7
:0C005A00C3500012000E0112C2901200F0
:10006600800EC16EFF0E926E946A936A176ADADF8B
:1000760000C015F001C016F000C081FF01C002F0FB
:0A008600036A02C082FFF2D7FFD721
:020000040030CA
:0D000100220F0EFF0181FF0FC00FE00F4026
:00000001FF
