:040000006CEF00F0B1
:1000080000C016F001C015F09EAA04D03AD800C06E
:0E00180017F09E9A16C000F015C001F01100FE
:100026007C0E246E000E256E280E266E000E276EA0
:100036008A0E206E000E216E000E226E000E236EBA
:10004600FF0E186EFF0E196E000E1A6E000E1B6E56
:10005600FF0E1C6EFF0E1D6E000E1E6E000E1F6E36
:10006600AC8A900EAB6E948E949C9EAA03D0AECFB3
:0600760000F0FBD71200B0
:0E007C00ACB202D00000FCD728C0ADFF1200CD
:10008A00AECF01F0ABA202D0AB98AB8801C000F0B2
:02009A00120052
:10009C000900F5CFE6FF0006FBE10106F9E11200CD
:1000AC009D8AF28EF28C400EAF6EAC84B6DF070EDA
:1000BC000B6E580E0C6E590E0D6E0D2EFED70C2EAF
:0C00CC00FCD70B2EFAD700000000120039
:1000D800410E176EE7DF17C028F0CCDF200E286E20
:1000E800C9DF0D0E0B6EAF0E0C6EB60E0D6E0D2E1B
:1000F800FED70C2EFCD70B2EFAD70000ECD7FFD773
:020000040030CA
:0D000100220F0EFF0181FF0FC00FE00F4026
:00000001FF
