:10000000BCEF7EF00000000000EF00F000000000F8
:0A0010000000000000000000F3D71C
:10001C000900F5CFE6FF0006FBE10106F9E112004D
:10F9B600576ACCD955C05CF03CDAC8D9572A57509B
:10F9C600FF0A02E1006A120020DA0050561803E12D
:0AF9D600010E006E1200EDD71200C2
:10FA1400F2CF01F05DC0F6FF5EC0F7FF5FC0F8FFF4
:10FA2400A68EA69CA684A688F29E550EA76EAA0E44
:10FA3400A76EA682F28E0A0061C0E9FF62C0EAFFE7
:10FA4400036A010E035C14E2026A400E025C05E2E2
:10FA5400EECFF5FF0F00022AF8D7A68EA69CA68447
:10FA6400F29E550EA76EAA0EA76EA682032AE9D7A8
:0AFA7400F28EA69401C0F2FF12000A
:10FD0600C00E5D6EFF0E5E6E000E5F6E606E150EAF
:10FD1600616E000E626E7BDEBC0E156EEF0E166E09
:0AFD26007E0E176EF00E186E12002C
:10FD52000D0E0C6EFB0E0D6E0D2EFED70C2EFCD76B
:06FD620000000000120089
:10FD7800330E556E79D8670E556E720E566E17DEB5
:0CFD8800005202E08AD801D017D9FFD742
:10FE1000AECF01F0ABA202D0AB98AB8801C000F02E
:02FE20001200CE
:0CFE3800ACB201D0FDD75CC0ADFF1200E1
:0AFE6000000E9EBA010E006E1200A3
:10FE7000900EAB6E260EAC6E948E949C9EAA01D012
:08FE8000FDD755C0AFFF1200D1
:10FEA200556A566A576A586A596A5950400A1AE19D
:10FEB200555056105710581001E124DF55C05DF01F
:10FEC20056C05EF057C05FF058C060F0150E616E0C
:10FED200000E626E9EDD596A400E5526000E5622B5
:10FEE20057225822790E5C6EA6DFB9DF005201E17B
:10FEF200FCD78DDF00C05BF0780E5C6E9CDFAFDF5D
:10FF0200005201E1FCD783DF00C05AF0150EE16E0A
:10FF1200000EE26E5950E126D8B0E22A5BC0E6FF3D
:10FF2200592A150EE16E000EE26E5950E126D8B044
:0CFF3200E22A5AC0E6FF592AB8D7120094
:02FFC00012002D
:020000040030CA
:0D000100021F1EFF8381FF0FC00FE00F40A4
:00000001FF
