:1000000077EF05F00000000000EF00F000000000B6
:0A0010000000000000000000F3D71C
:06001C00838683941200AC
:100022000B6A0A6A096A00500402F4CF09F0F3CF9E
:1000320008F001500502F4CF0BF0F3CF0AF00050A4
:100042000502F3500926F4500A22E86A0B220150F5
:100052000402F3500926F4500A22E86A0B2208C06F
:1000620000F009C001F00AC002F00BC003F0120058
:060072008298828A120050
:0600780083908382120058
:06007E0083808392120052
:060084008288829A12003E
:06008A008396838412003E
:060090008290828612003E
:100096000B1E0A1E091E081E082AD8B4092AD8B43F
:0800A6000A2AD8B40B2A12004B
:1000AE000450085E0550D8A0053C095E0650D8A045
:1000BE00063C0A5E0750D8A0073C0B5E0336070EBF
:1000CE000C6E0334083609360A360B36045003A07C
:1000DE000ED0085E0550D8A0053C095E0650D8A08B
:1000EE00063C0A5E0750D8A0073C0B5E0DD00826D2
:1000FE000550D8B0053C09260650D8B0063C0A2655
:10010E000750D8B0073C0B2603360C2EDAD7023434
:10011E00083609360A360B36045003A00ED0085E98
:10012E000550D8A0053C095E0650D8A0063C0A5ED4
:10013E000750D8A0073C0B5E0DD008260550D8B04E
:10014E00053C09260650D8B0063C0A260750D8B002
:10015E00073C0B260236070E0C6E023408360936A3
:10016E000A360B36045002A00ED0085E0550D8A0F9
:10017E00053C095E0650D8A0063C0A5E0750D8A082
:10018E00073C0B5E0DD008260550D8B0053C09265D
:10019E000650D8B0063C0A260750D8B0073C0B26AE
:1001AE0002360C2EDAD70134083609360A360B36EB
:1001BE00045002A00ED0085E0550D8A0053C095E82
:1001CE000650D8A0063C0A5E0750D8A0073C0B5E2E
:1001DE000DD008260550D8B0053C09260650D8B0DB
:1001EE00063C0A260750D8B0073C0B260136070EF0
:1001FE000C6E0134083609360A360B36045001A04F
:10020E000ED0085E0550D8A0053C095E0650D8A059
:10021E00063C0A5E0750D8A0073C0B5E0DD00826A0
:10022E000550D8B0053C09260650D8B0063C0A2623
:10023E000750D8B0073C0B2601360C2EDAD7003407
:10024E00083609360A360B36045001A00ED0085E69
:10025E000550D8A0053C095E0650D8A0063C0A5EA3
:10026E000750D8A0073C0B5E0DD008260550D8B01D
:10027E00053C09260650D8B0063C0A260750D8B0D1
:10028E00073C0B260036070E0C6E00340836093676
:10029E000A360B36045000A00ED0085E0550D8A0CA
:1002AE00053C095E0650D8A0063C0A5E0750D8A051
:1002BE00073C0B5E0DD008260550D8B0053C09262C
:1002CE000650D8B0063C0A260750D8B0073C0B267D
:1002DE0000360C2EDAD700B00ED00450082605508A
:1002EE00D8B0053C09260650D8B0063C0A26075061
:0802FE00D8B0073C0B261200EA
:06030600828082961200C5
:06030C00B8DEBADE1200AB
:10031200220E0C6E086A096A0A6A0B6A0C06D8B4C5
:100322001FD0D8900B320A3209320832033202321D
:1003320001320032D8A0F2D70C06D8B409D004504A
:1003420008260550092206500A2207500B22EAD736
:10035200045008260550092206500A2207500B2293
:02036200120087
:10036400CB50010F006E016A000E012238C004F068
:10037400000E056E54DE060E026E00C004F001C0CD
:1003840005F0025005E005320432059EFF0FFAD74E
:10039400040E016E04C000F0015004E00036009029
:1003A400FF0FFBD7300E0014036E04C000F005C02D
:1003B40001F001320032019E01320032019E00C080
:0C03C400BBFF0F0EBA160350BA12120055
:1003D000200E006E4E0E016E000E026E036E1200B5
:1003E000CB50010F006E016A000E012238C004F0EC
:1003F000000E056E16DE060E026E00C004F001C08F
:1004000005F0025005E005320432059EFF0FFAD7D1
:10041000040E016E04C000F0015004E000360090AC
:10042000FF0FFBD7300E0014036E04C000F005C0B0
:1004300001F001320032019E01320032019E00C003
:0C044000BEFF0F0EBD160350BD121200CF
:10044C003806380638C001F038060150000803E2BF
:10045C0000000000F7D700000000000000000000C2
:02046C0012007C
:10046E000450000A12E10550000A0FE10650000A7E
:10047E000CE10750000A09E1FF0E006EFF0E016E3F
:10048E00FF0E026E7F0E036E12000C6A07BE0C2A60
:10049E000D6A0B6A0A6A096A086A03500210011093
:1004AE000010D8B484D0035007180E6E0EBE0D1E69
:1004BE0007AE0BD0041E051E061E071E042AD8B456
:1004CE00052AD8B4062AD8B4072A03AE0BD0001ECC
:1004DE00011E021E031E002AD8B4012AD8B4022A15
:1004EE00D8B4032A035007100E6E0EBE1CD0D8DDF2
:1004FE000CBE36D00DAE5BD0001E011E021E031EBA
:10050E00002AD8B4012AD8B4022AD8B4032A081E65
:10051E00091E0A1E0B1E082AD8B4092AD8B40A2AA4
:10052E00D8B40B2A44D007AE15D003BE0DD003505D
:10053E000B6E02500A6E0150096E0050086E036A6F
:10054E00026A016A006AD6D7036A026A016A006A01
:10055E00002A000C031E021E011E001E0C8EC7D7A1
:10056E00082AD8B4092AD8B40A2AD8B40B2A0450B7
:10057E00085CD8A4BFD70550095CD8A4BBD70650D9
:10058E000A5CD8A4B7D707500B5CD8A4B3D70B6AB4
:10059E000A6A096A086A002AD8B4012AD8B4022A5B
:1005AE00D8B4032A03AEA6D70E6A0E88FF0C0E6AC5
:0A05BE000CA001D069DD000F12004F
:0605C8009EDE28DD12009A
:0605CE0054DD50DD1200B7
:0605D4005DDD59DD12009F
:0A05DA00FCDF25C038F0FFDE120040
:0A05E40093DE25C038F0BCDE1200E3
:0A05EE009494CA840C0EBD12120092
:0A05F8009492CA840C0EBA1212008D
:1006020025C0E1FF26C0E2FFE66A010E286E276AD6
:100612001F901DC0E9FF1EC0EAFF1C50000A13E133
:100622002250EF14016E0150000A0CE01FA009D005
:1006320025C0E1FF26C0E2FFFF0EE66E27C000F0F4
:100642001200EED712D02250EF14016E0150000AB0
:100652000CE11FA009D025C0E1FF26C0E2FFFF0E7A
:10066200E66E27C000F01200EED721C038F0EDDEB2
:1006720020C038F0EADE285215E02250EF14016E55
:100682000150000A02E02850271228362890020E54
:10069200205C386EDADE000000000000000000007E
:1006A2000000E9D71C50000A10E12250EF14016E3D
:1006B2000150000A010ED8A4000E006E25C0E1FF11
:1006C20026C0E2FF00C0E6FF0FD02250EF14016EF9
:1006D2000150000A000ED8A4010E006E25C0E1FFF1
:1006E20026C0E2FF00C0E6FF1C502718006E00C0C3
:0406F20027F01200DB
:0806F600BB6ABA98BA9A12001F
:1006FE0025C01DF026C01EF027C000F0010E026EB0
:10070E00005004E002360290FF0FFBD702C022F029
:10071E00021C1A6E28C001F0010E006E015004E09A
:10072E0000360090FF0FFBD700C01BF0001E00C06C
:10073E0019F0120E2524E96E000E2620EA6E0250E4
:10074E00EF120050EF161C6A2D5201E01C1E120E05
:10075E00E95E1C50000A03E01950EF1602D01B5040
:10076E00EF122FDEE80E046E030E056E000E066EFF
:10077E00076EC8DD00C02EF001C02FF002C030F0B1
:10078E0003C031F029C000F02AC001F02BC002F0E6
:10079E002CC003F0003600900136023603360036C8
:1007AE0000900136023603360A0E046E000E056EF8
:1007BE00066E076EA7DD00C032F001C033F002C036
:1007CE0034F003C035F000C004F001C005F002C0E3
:1007DE0006F003C007F02EC000F02FC001F030C0AD
:1007EE0002F031C003F03CDE00C036F001C037F03D
:1007FE0001C004F0056A0450051003E0020E006EFD
:10080E00120036C020F032C004F033C005F034C000
:10081E0006F035C007F02EC000F02FC001F030C03A
:10082E0002F031C003F01CDE08C000F009C001F078
:10083E000AC002F00BC003F000C02EF001C02FF072
:10084E0002C030F003C031F032C005F033C006F004
:10085E0034C007F035C008F00832073206320532D0
:10086E00089E08BC088E800E0818046E800E0318B1
:10087E00045C08E10250075C05E10150065C02E1F0
:10088E000050055C01E2202A20C001F00132019ED9
:10089E0001C021F0070E015C03E2010E006E120092
:0408AE00006A1200CA
:1008B200010E266E1C50251A1DC0E9FF1EC0EAFF5C
:1008C2001C50000A03E01B50EF1202D01950EF1621
:1008D20020C038F0BADD251E265216E02650251417
:1008E200006E03E11B50EF1202D01950EF162636AC
:1008F2002690020E205C386EA8DD00000000000089
:10090200000000000000E8D71C50000A03E0195064
:10091200EF1602D01B50EF1220C038F096DD120005
:0A09220055DE25C038F01DDD12007F
:08092C00BE6ABD98BD9A1200DD
:0A09340049DE25C038F052DD120044
:10093E00820E256E0F0E266E070E276E060E286E81
:10094E00800E296E250E2A6E000E2B6E2C6E2D6AD1
:08095E00CFDE00C017F012000B
:10096600256A266A37DEFF0E256E000E266ED6DF56
:06097600400E816E12002C
:02097C00120067
:10097E000900F5CFE6FF0006FBE10106F9E11200E2
:10098E00FF0E256E000E266E21DE256A266A23DEF8
:06099E00100E816E120034
:1009A400256A266AC5DFFF0E256E000E266E18DE48
:0609B400040E816E12002A
:1009BA00400EC26EFF0E926E806A936A816A946AD2
:1009CA00826A956A836ACA80CA92F90ECB6EA9DFD7
:1009DA00CA80CA92F90ECB6E89DE04DE08DE1200E6
:1009EA003FEC00F048EC00F039EC00F00EEC00F0BF
:0E09FA0023C038F0F0DC23C038F0AFDC120070
:100A0800FF0E256E000E266E91DFFF0E256E000E7E
:0A0A1800266EE4DD020E816E12006E
:100A2200170E256E000E266EEBDD00C016F01200CA
:100A3200FF0E256E000E266ECFDDFF0E256E000E18
:0A0A4200266ECFDD080E816E120053
:100A4C00FF0E256E000E266E6FDF256A266AC4DD4A
:060A5C00010E816E120084
:100A6200FF0E256E000E266EB7DDFF0E256E000E00
:0A0A7200266E56DF200E816E120082
:0A0A7C00386AB0DC386A70DC120042
:100A86003CEC00F03DDC42EC00F045EC00F023C00D
:0C0A960038F0A3DC23C038F062DC120052
:100AA2007A0E186E410E185C13E318C025F000DFB1
:100AB200030E0B6E8A0E0C6E550E0D6E0D2EFED7AA
:100AC2000C2EFCD70B2EFAD7000000001806EAD72E
:020AD200120010
:100AD400FF0E256E000E266E2BDFFF0E256E000E18
:0A0AE400266E1DDF800E816E1200E9
:100AEE007C0E156E63DF24DFD5DF94DF00C015F0BA
:100AFE0031D0A5DF63D04FDF61D042DF5FD02CDF76
:100B0E005DD07BDF5BD08EDF59D0A4DF57D0DBDF2B
:100B1E0055D0ADDF53D0FF0E236E000E246EACDF2A
:100B2E004DD0FF0E236E000E246E58DF47D0B40E4C
:100B3E00236E000E246EA0DF41D0B40E236E000E85
:100B4E00246E4CDF3BD03AD039D091DF37D00FDF57
:100B5E0035D034D01550410ACCE01550420ACBE0C6
:100B6E001550430ACAE01550440AC9E01550450A0B
:100B7E00C8E01550460AC7E01550470AC6E01550A2
:100B8E00480AC5E01550530AC4E015504A0AC3E09E
:100B9E0015504B0AC6E015504C0AC9E015504D0AC7
:100BAE00CCE01550630ACFE01550730ACDE0155016
:100BBE005A0ACBE01550570ACAE0CBD796D7FFD7C3
:020000040030CA
:0D000100220F0EFF0181FF0FC00FE00F4026
:00000001FF
