:10000000B8EF3EF00000000000EF00F0000000003C
:0A0010000000000000000000F3D71C
:10001C000900F5CFE6FF0006FBE10106F9E112004D
:107D4800110E0C6E3A0E0D6E0D2EFED70C2EFCD7B2
:047D58000000120015
:107D7000400E556EAFD8670E556E720E566E0ED809
:0C7D8000005202E0B9D801D01BD9FFD797
:107D9C00576AD4DF55C05CF07FD8D0DF572A5750D4
:107DAC00FF0A02E1006A120069D80050561803E17C
:0A7DBC00010E006E1200EDD7120058
:107DD400F2CF01F05DC0F6FF5EC0F7FF5FC0F8FFB1
:107DE400A68EA69CA684A688F29E550EA76EAA0E01
:107DF400A76EA682F28E0A0061C0E9FF62C0EAFFA4
:107E0400036A080E035C14E2026A080E025C05E2CF
:107E1400EECFF5FF0F00022AF8D7A68EA69CA68403
:107E2400F29E550EA76EAA0EA76EA682032AE9D764
:0A7E3400F28EA69401C0F2FF1200C6
:107E5000C00E5D6E7F0E5E6E000E5F6E606E150E64
:107E6000616E000E626EB6DFB80E156EEF0E166E06
:0A7E70003E0E176EF00E186E1200A1
:107E8800AECF01F0ABA202D0AB98AB8801C000F036
:027E98001200D6
:0C7EA400ACB201D0FDD75CC0ADFF1200F5
:0A7EC400000E9EBA010E006E1200BF
:107ED400900EAB6E260EAC6E948E949C9EAA01D02E
:087EE400FDD755C0AFFF1200ED
:107EF800576A586A596A5A6A5B6A5750400A1AE1BF
:107F0800585059105A105B1001E19EDF58C05DF0BF
:107F180059C05EF05AC05FF05BC060F0150E616E2C
:107F2800000E626E53DF576A400E5826000E592223
:107F38005A225B22790E5C6EB1DFC0DF005201E18C
:107F4800FCD79EDF00C056F0780E5C6EA7DFB6DF68
:107F5800005201E1FCD794DF00C055F0150EE16E28
:107F6800000EE26E5750E126D8B0E22A56C0E6FF6E
:107F7800572A150EE16E000EE26E5750E126D8B072
:0C7F8800E22A55C0E6FF572AB8D71200C5
:027FC0001200AD
:020000040030CA
:0D000100220F0EFF0181FF0FC00FE00F4026
:00000001FF
