:100000006CEF00F00000000000EF00F000000000C6
:0A0010000000000000000000F3D71C
:0C001C00240E0D6E0D2EFED70000120009
:1000280081800D0E0C6EFB0E0D6E0D2EFED70C2E64
:10003800FCD7000000008190750E0C6EE10E0D6E6D
:0A0048000D2EFED70C2EFCD712007F
:100052008180070E0C6E7D0E0D6E0D2EFED70C2EBE
:10006200FCD781907C0E0C6E5F0E0D6E0D2EFED7AE
:060072000C2EFCD7120069
:10007800C26AC00EC212C18CC18E19C000F000360F
:10008800009000360090003600900050C212C280E6
:10009800C1DFC284C2A401D0FDD7C4CF01F0006A79
:0C00A800C3500012000E0112C2901200A2
:1000B4000900F5CFE6FF0006FBE10106F9E11200B5
:1000C400400EC16EFF0E926E806A816A936A956AD1
:0400D400966A120016
:1000D800176A186AF3DF196ACBDF00C015F001C090
:1000E80016F000C083FF01C002F0036A02C084FF5B
:1000F800020E015C02E1BC0E005C02E391DF01D05C
:06010800A4DFE9D7FFD7D8
:020000040030CA
:0D000100220F0EFF0181FF0FC00FE00F4026
:00000001FF
