:0A0000008A150A167D2E0000002864
:0E000A008312031365088A0064088200080050
:1000180005208A110A128000840AE40A0319E50AF5
:08002800F003031D0C28080081
:103AA000831203132A08A0002B08A1002C08A200EF
:103AB0002D08A3002808AC002908AD002608AA009C
:103AC0002708AB002408A8002508A9008A30A40014
:0E3AD0001130A5000A30A6001230A700080031
:103ADE000D30FC00FB30FD00FD0B732DFC0B732D28
:063AEE00000000000800CA
:103B1800831203131A08F100981C942D1812181612
:063B28007108F000080026
:0E3B44000030831203138C1A0130F0000800C9
:103B6A00831603139818BA2DB52D83126A08990083
:023B7A00080041
:103B9E0090308312031398002630831698008717EF
:103BAE00071383128C1EDC2DD82D66088316990000
:023BBE000800FD
:103BE40083120313F7017708203A03193E2E831238
:103BF40003130530F2006B08F0006C08F100720842
:103C04000319092EF00DF10D7010FF3E022E8312E0
:103C140077087007F50071080318013EF60077086D
:103C2400F000F00D70107008243E84000008F300CA
:103C3400840A0008F4000B08F800750803178D00C7
:103C44007608F000F10170088F0073088C00740886
:103C5400F000F10170088E0083168C170C158B137D
:103C640055308D00AA308D008C14000000007808B7
:0A3C74008B000C11F70AF52D080073
:103CAC005025FD30EB00EC01F2250A308312031392
:103CBC00A4001630A5008A30A6001530A7007D3070
:103CCC00A8002E30A9002008AA002108AB00220869
:083CDC00AC002308AD00080054
:103CFA00333083120313E600CF2567308312E600C0
:103D0A007230E700D2267008FF3A03198E2E102768
:063D1A008F2EA0278F2E62
:103DA40083120313E901E8016808013A0319F22EAA
:103DB4006F256608EA00B5256F25E90AA225700873
:103DC4000319EB2E8C2570086706031DEB2E0130BA
:103DD400E8006908FF3A031DF12E0130E800D62EF1
:063DE4006908F000080070
:103E200083120313E601E701E8016608203A031D47
:103E30002D2F00306806031D1F2F00306706031D5D
:103E4000222F56266708EB006808EC00F225831243
:103E50000313E601E70A0319E80A7930EA00B525F9
:103E6000A2257008013A031D302F8C257008A2008E
:103E7000A3017830EA00B525A2257008013A031D98
:103E80003C2F8C257008A000A1016608F000F00D01
:103E900070107008243E84002008F100F0017008C2
:103EA00080007108840A80006608F000F00D701030
:103EB0007008243EF2007208840022080007F00017
:103EC000840A00080318013E2307F10072088400E9
:103ED000700880007108840A8000E60A152F080027
:0A3F4000000000000000000008006F
:02400E004A2F37
:00000001FF
