:02000000E22BF1
:100006007408F8027508031C750FF9027608031CBC
:10001600760FFA027708031C770FFB02F30D073001
:10002600FC00730DF80DF90DFA0DFB0D7408731C29
:100036002A28F8027508031C750FF9027608031CB6
:10004600760FFA027708031C770FFB023728F807AA
:1000560075080318750FF90776080318760FFA075F
:1000660077080318770FFB07F30DFC0B1428720DA6
:10007600F80DF90DFA0DFB0D7408731C5028F802E3
:100086007508031C750FF9027608031C760FFA0231
:100096007708031C770FFB025D28F807750803181D
:1000A600750FF90776080318760FFA07770803180D
:1000B600770FFB07F20D0730FC00720DF80DF90DF6
:1000C600FA0DFB0D7408721C7628F8027508031CDD
:1000D600750FF9027608031C760FFA027708031CDF
:1000E600770FFB028328F80775080318750FF907C1
:1000F60076080318760FFA0777080318770FFB07B9
:10010600F20DFC0B6028710DF80DF90DFA0DFB0DC3
:100116007408721C9C28F8027508031C750FF902F6
:100126007608031C760FFA027708031C770FFB028A
:10013600A928F80775080318750FF9077608031834
:10014600760FFA0777080318770FFB07F10D0730CC
:10015600FC00710DF80DF90DFA0DFB0D7408711CFC
:10016600C228F8027508031C750FF9027608031CED
:10017600760FFA027708031C770FFB02CF28F807E1
:1001860075080318750FF90776080318760FFA072E
:1001960077080318770FFB07F10DFC0BAC28700DE1
:1001A600F80DF90DFA0DFB0D7408711CE828F8021C
:1001B6007508031C750FF9027608031C760FFA0200
:1001C6007708031C770FFB02F528F8077508031854
:1001D600750FF90776080318760FFA0777080318DC
:1001E600770FFB07F00D0730FC00700DF80DF90DC9
:1001F600FA0DFB0D7408701C0E29F8027508031C15
:10020600750FF9027608031C760FFA027708031CAD
:10021600770FFB021B29F80775080318750FF907F6
:1002260076080318760FFA0777080318770FFB0787
:10023600F00DFC0BF82870182E297408F8077508BD
:100246000318750FF90776080318760FFA0777086B
:080256000318770FFB070800F5
:10025E00FB09FA09F909F809F80A0319F90A031949
:08026E00FA0A0319FB0A08005B
:1002760083120313C103C1034108003C0318482934
:10028600C1030000000000003F290000000000003C
:060296000000000008005A
:0E029C008312031324088A002308820008003E
:1002AA00831203132230FC00F801F901FA01FB0161
:1002BA00FC0303198B290310FB0CFA0CF90CF80C3C
:1002CA00F30CF20CF10CF00C031C5D29FC0303196E
:1002DA007D297408F80775080318750FF907760859
:1002EA000318760FFA0777080318770FFB076129B7
:1002FA007408F80775080318750FF90776080318C4
:0E030A00760FFA0777080318770FFB07080035
:10031800203083120313F0004E30F100F201F30194
:020328000800CB
:10032A00831203137408003A031DB0297508003AB2
:10033A00031DB0297608003A031DB0297708003A50
:10034A00031DB029FF30F000FF30F100FF30F2004A
:10035A007F30F300080083120313FC01F71BFC0A29
:10036A00FD01FB01FA01F901F80173087204710435
:10037A0070040319442A73087706A000A01BFD091C
:10038A00F71FD229F409F509F609F709F40A03193E
:10039A00F50A0319F60A0319F70AF31FDF29F00908
:1003AA00F109F209F309F00A0319F10A0319F20A29
:1003BA000319F30A73087704A000A01B002A03207C
:1003CA00FC1B1D2AFD1F442AF009F109F209F30951
:1003DA00F00A0319F10A0319F20A0319F30AF809D0
:1003EA00F909FA09FB09F80A0319F90A0319FA0AB9
:1003FA000319FB0A442AF71F172AF31B112A730849
:10040A00FB007208FA007108F9007008F800F3019D
:10041A00F201F101F001E729F301F201F101F00122
:10042A00F00A0034F309F209F109F009FC17E4298A
:10043A00F80A0319F90A0319FA0A0319FB0A7408D4
:10044A007802031DE72975087902031DE729760852
:10045A007A02031DE72977087B02031DE729FB01BE
:10046A00FA01F901F801F00A0319F10A0319F20A6B
:10047A000319F30AF31FE729A0012016FF34A0018C
:0A048A007C1C482A2F21003E0800C8
:100494004E218A110A128000840AA30A0319A40AAD
:0804A400F003031D4A2A0800C1
:1004AC00013083120313B0002708AF06280884001C
:1004BC002708003A0319652A26088004672A2208AF
:1004CC0080052E08C1003B21AF0930080319832A8F
:1004DC0030082F05F000031D762A26088004782AA0
:1004EC0022088005B00D301002302E02C1003B21D5
:1004FC0000000000000000006B2A2708003A0319D6
:10050C008A2A220880058C2A260880042E08C1001D
:04051C003B21080077
:10052000831203132F08840080010130B100B00151
:100530002D10280884002708003A031DB12A2A0834
:100540000005F1007108003A0319B02A2D1CAF2AEA
:100550002F088400FF3080003008F00008009F2A38
:10056000C22A2A080005F1007108003A031DC22AB8
:100570002D1CC12A2F088400FF3080003008F000B5
:100580000800B12A2908C1003B212E08C1003B21E7
:1005900031080319DF2A2A080005F1007108003A22
:1005A0000319D42A3108B004B10D311002302E02E3
:1005B000C1003B210000000000000000C82A2708FD
:1005C000003A031DF12A2A080005F1007108003ADB
:1005D0000130031D0030F0002F08840070088000F7
:1005E000FE2A2A080005F1007108003A01300319BB
:1005F0000030F0002F0884007008800027083006C3
:08060000F0007008B0000800D2
:10060800831203132F08A8003008F0000130F2000D
:1006180070080319132BF20D7210FF3E0D2B720890
:10062800AA007209A5003108F1000130F000710834
:100638000319222BF00D7010FF3E1C2B7008A6002A
:10064800F0097008A20080302F0784007208800427
:1006580070088005A70136080319332BA7098413EE
:100668002708003A03193B2B220880053D2B260852
:1006780080048C21E830F4000330F500F601F7011E
:1006880055217008B7007108B8007208B9007308DE
:10069800BA003208F0003308F1003408F2003508D7
:1006A800F300F00DF10DF20DF30D7010F00DF10DDA
:1006B800F20DF30D70100A30F400F501F601F701A0
:1006C80055217008BB007108BC007208BD00730892
:1006D800BE007008F4007108F5007208F60073088F
:1006E800F7003708F0003808F1003908F2003A0836
:1006F800F30095217008BF007108C0007108F4006C
:10070800F5017408750403198C2B0230F0000800F9
:100718003F08AE003B08F4003C08F5003D08F60031
:100728003E08F7003708F0003808F1003908F200F1
:100738003A08F30095217808F0007908F1007A0862
:10074800F2007B08F3007008B7007108B80072085F
:10075800B9007308BA003B08F5003C08F6003D08EC
:10076800F7003E08F800F80CF70CF60CF50CF81337
:10077800781BF81780307806F4008030730674020E
:10078800031DD02B72087702031DD02B7108760247
:10079800031DD02B700875020318D32BAE0A2E0840
:1007A800F100F10CF1137108A90007307102031868
:0C07B800E02B0130F0000800F001080008
:1007C400831603138801831288018316860183121A
:1007D40086010730AF000730B0000630B10080302A
:1007E400B2002530B300B401B501B601042370088A
:1007F400A1007008003C0318022C21088600012C7B
:100804000330FB008A30FC005530FD00FD0B082C42
:10081400FC0B082CFB0B082C000000007A30AC0009
:1008240041302C02031C292C2C08AF005622033023
:10083400FB008A30FC005530FD00FD0B1F2CFC0B27
:100844001F2CFB0B1F2C00000000AC03122C2130CA
:10085400AF0090227008AB0021080319342C210842
:100864008600392C2B08AF0056222B088800292C2F
:020874003A2C1C
:02400E004A2F37
:00000001FF
