:1000000016EF00F00000000000EF00F0000000001C
:0A0010000000000000000000F3D71C
:10001C000900F5CFE6FF0006FBE10106F9E112004D
:10002C00156A166A936A816A156A166A800E161822
:10003C00006E800E005C02E1640E155C18E2030E8B
:10004C00816E0D0E0C6EFB0E0D6E0D2EFED70C2E52
:10005C00FCD700000000816A750E0C6EE10E0D6E6F
:10006C000D2EFED70C2EFCD7154A162ADFD7156A93
:10007C00166A800E1618006E800E005C02E1640E8B
:10008C00155C2AE2030E816E070E0C6E7D0E0D6E52
:10009C000D2EFED70C2EFCD7040E0C6E3D0E0D6EE5
:1000AC000D2EFED70C2EFCD700000000816A750EB9
:1000BC000C6EE10E0D6E0D2EFED70C2EFCD7030E22
:1000CC000C6E970E0D6E0D2EFED70C2EFCD700006D
:1000DC000000154A162ACDD7156A166A800E161816
:1000EC00006E800E005C02E1640E155C16E2030EDD
:1000FC00816E070E0C6E7D0E0D6E0D2EFED70C2E26
:10010C00FCD7816A7C0E0C6E5F0E0D6E0D2EFED729
:0E011C000C2EFCD7154A162AE1D786D7FFD73E
:020000040030CA
:0D000100220F0EFF0181FF0FC00FE00F4026
:00000001FF
