:100000006CEF01F00000000000EF00F000000000C5
:0A0010000000000000000000F3D71C
:06001C00838083921200B4
:100022000B6A0A6A096A00500402F4CF09F0F3CF9E
:1000320008F001500502F4CF0BF0F3CF0AF00050A4
:100042000502F3500926F4500A22E86A0B220150F5
:100052000402F3500926F4500A22E86A0B2208C06F
:1000620000F009C001F00AC002F00BC003F0120058
:060072008288829A120050
:0600780082908286120056
:06007E008396838412004A
:060084008390838212004C
:06008A008386839412003E
:060090008280829612003E
:060096008298828A12002C
:06009C00F9DFF5DF1200A0
:1000A200CB50010F006E016A000E012219C004F04C
:1000B200000E056EB5DF060E026E00C004F001C030
:1000C20005F0025005E005320432059EFF0FFAD713
:1000D200040E016E04C000F0015004E000360090EE
:1000E200FF0FFBD7300E0014036E04C000F005C0F2
:1000F20001F001320032019E01320032019E00C045
:0C010200BBFF0F0EBA160350BA12120019
:06010E0086DFB0DF1200E5
:10011400CB50010F006E016A000E012219C004F0D9
:10012400000E056E7CDF060E026E00C004F001C0F6
:1001340005F0025005E005320432059EFF0FFAD7A0
:10014400040E016E04C000F0015004E0003600907B
:10015400FF0FFBD7300E0014036E04C000F005C07F
:1001640001F001320032019E01320032019E00C0D2
:0C017400BEFF0F0EBD160350BD1212009E
:060180007BDF7DDF1200B1
:060186007EDF86DF12009F
:08018C00BE6ABD98BD9A120085
:0A019400F5DF15C019F0BCDF120002
:08019E00BB6ABA98BA9A12007C
:0A01A600B3DF15C019F07ADF120074
:0A01B00075DF15C019F0AEDF120074
:0A01BA009492CA840C0EBA121200CF
:0A01C4009494CA840C0EBD121200C0
:0A01CE00DBDF15C019F066DF120038
:1001D8000900F5CFE6FF0006FBE10106F9E1120090
:1001E800946A826A956A836A936A816ACA80CA92A3
:1001F800F90ECB6EC7DFCA80CA92F90ECB6ECBDF81
:06020800DDDFD7DF12006C
:10020E00FF0E156E000E166ECCDF156A166AC4DF71
:06021E00010E816E1200CA
:10022400FF0E156E000E166EC1DFFF0E156E000E6A
:0A023400166EB7DF020E816E120095
:10023E00FF0E156E000E166EA6DF156A166AACDF7F
:06024E00100E816E12008B
:10025400FF0E156E000E166E9BDFFF0E156E000E60
:0A026400166E9FDF080E816E120077
:10026E00156A166A9EDFFF0E156E000E166E94DF6F
:06027E00040E816E120067
:10028400FF0E156E000E166E91DFFF0E156E000E3A
:0A029400166E9BDF800E816E1200D3
:0A029E00196A39DF196AFEDE12004A
:1002A800FF0E156E000E166E71DFFF0E156E000E36
:0A02B800166E89DF200E816E120021
:1002C200156A166A66DFFF0E156E000E166E7EDF69
:0602D200400E816E1200D7
:1002D80087DF99DF1A0E0B6E5E0E0C6E6E0E0D6EBA
:1002E8000D2EFED70C2EFCD70B2EFAD7000096DF6A
:1002F8001A0E0B6E5E0E0C6E6E0E0D6E0D2EFED768
:100308000C2EFCD70B2EFAD70000ADDF9FDF1A0E9C
:100318000B6E5E0E0C6E6E0E0D6E0D2EFED70C2E35
:10032800FCD70B2EFAD700001A0E0B6E5E0E0C6E61
:100338006E0E0D6E0D2EFED70C2EFCD70B2EFAD797
:10034800000079DF1A0E0B6E5E0E0C6E6E0E0D6ECF
:100358000D2EFED70C2EFCD70B2EFAD70000A0DFEF
:100368001A0E0B6E5E0E0C6E6E0E0D6E0D2EFED7F7
:100378000C2EFCD70B2EFAD700009FDF1A0E0B6E3F
:100388005E0E0C6E6E0E0D6E0D2EFED70C2EFCD76B
:100398000B2EFAD7000072DF1A0E0B6E5E0E0C6E73
:1003A8006E0E0D6E0D2EFED70C2EFCD70B2EFAD727
:0603B800000071DFFFD719
:020000040030CA
:0D000100220F0EFF0181FF0FC00FE00F4026
:00000001FF
