:10000000B4EF0EF00000000000EF00F00000000070
:0A0010000000000000000000F3D71C
:10001C000900F5CFE6FF0006FBE10106F9E112004D
:101D3E000D0E0C6EFB0E0D6E0D2EFED70C2EFCD75F
:061D4E000000000012007D
:101D6800330E556EB0D8670E556E720E566E0ED87D
:0C1D7800005202E0BBD801D01FD9FFD7F9
:101D9400576AD3DF55C05CF082D8CFDF572A57503B
:101DA400FF0A02E1006A12006AD80050561803E1E3
:0A1DB400010E006E1200EDD71200C0
:101DCE00F2CF01F05DC0F6FF5EC0F7FF5FC0F8FF17
:101DDE00A68EA69CA684A688F29E550EA76EAA0E67
:101DEE00A76EA682F28E0A0061C0E9FF62C0EAFF0A
:101DFE00036A080E035C14E2026A080E025C05E236
:101E0E00EECFF5FF0F00022AF8D7A68EA69CA68469
:101E1E00F29E550EA76EAA0EA76EA682032AE9D7CA
:0A1E2E00F28EA69401C0F2FF12002C
:101E4A00C00E5D6E1F0E5E6E000E5F6E606E150E2A
:101E5A00616E000E626EB6DFB40E156EEF0E166E70
:0A1E6A000E0E176EF00E186E120037
:101E8200AECF01F0ABA202D0AB98AB8801C000F09C
:021E920012003C
:0C1EA200ACB201D0FDD75CC0ADFF120057
:0A1EBE00000E9EBA010E006E120025
:101ECE00900EAB6E260EAC6E948E949C9EAA01D094
:081EDE00FDD755C0AFFF120053
:101EF400556A566A576A586A596A5950400A1AE12B
:101F0400555056105710581001E19DDF55C05DF033
:101F140056C05EF057C05FF058C060F0150E616E99
:101F2400000E626E52DF596A400E5526000E56228C
:101F340057225822790E5C6EB2DFBFDF005201E1F6
:101F4400FCD79DDF00C05BF0780E5C6EA8DFB5DFC8
:101F5400005201E1FCD793DF00C05AF0150EE16E88
:101F6400000EE26E5950E126D8B0E22A5BC0E6FFCB
:101F7400592A150EE16E000EE26E5950E126D8B0D2
:0C1F8400E22A5AC0E6FF592AB8D7120022
:021FC00012000D
:020000040030CA
:0D000100C20F1EFF8381FF0FC00FE00F40F4
:00000001FF
